:100000000C942A001895000018950000189500001F
:10001000189500001895000018950000189500002C
:10002000189500001895000018950000189500001C
:10003000189500001895000018950000189500000C
:1000400018950000189500001895000018950000FC
:10005000189500008FE58DBFC8E3E0E24E2E88E0E2
:100060008EBFD8E0F8E05F2EA89584B7082E877F72
:1000700084BF88E1992781BD91BDEEEFF7E0A0E64E
:10008000B0E088278D933197E9F70E945B016624E1
:100090008D98959A8C98949AE4EBF0E088E40E940D
:1000A000A90158E0C895802D0E94A30131965A9568
:1000B000C9F704C020202015151F2020E8EDF0E02E
:1000C00080E50E94A90158E0C895802D0E94A301F7
:1000D00031965A95C9F704C008080808080F20206F
:1000E000ECEFF0E088E50E94A90158E0C895802D6A
:1000F0000E94A30131965A95C9F704C02020070435
:10010000041F2020E0E2F1E080E60E94A90158E00F
:10011000C895802D0E94A30131965A95C9F704C055
:10012000200C2011111F202080E08093600080E0CF
:100130008093610081E0809362000E9443010E94ED
:100140003F0184E00E94A30183E00E94A30182E0BA
:100150000E94A30181E00E94A30184990C94B20043
:100160000E940C0185990C94B7000E941E018FEB30
:1001700011E00E945201E2EAF4E00E943801E2E656
:10018000F0E0A8E0B8E00E940C020E943001E4EA2E
:10019000F4E00E943801E1E6F0E0A8E0B8E00E9457
:1001A0000C020E943001E4EAF4E00E943801E0E62B
:1001B000F0E0A8E0B8E00E940C020E94300180E765
:1001C00090E00E94D601A0E6B0E08C918F5F8C9306
:1001D000009160000B3318F011F00C94F1000C94B6
:1001E000080180E080936000A1E6B0E08C918F5F11
:1001F0008C93E2EAF4E00E943801009161000B3335
:1002000018F011F00C9406010C9408010C94940061
:100210000C94AD00F894FFCFA1E6B0E08C918F5F15
:100220008C93009161000B3318F011F00C941A01BB
:100230000C941D0180E0809361000895A2E6B0E077
:100240008C918F5F8C93009162000C3018F011F04C
:100250000C942C010C942F0181E08093620008958E
:10026000A8E0B8E08D91882311F06DD0FBCF089500
:100270000E94EA01802D11F066D0FACF089582E045
:1002800068D016D012C081E064D012D080E861C07E
:100290008FE7213039F08FEB223021F08FE82330C7
:1002A00009F08FEC810F0C94A90180E852D00895D9
:1002B00083E099277BC08AEF90E00E94D601A49A40
:1002C000A39AA29AA19A8A9A8B9A939885E090E031
:1002D0000E94D6019298AC98AB98AA9AA99A929A41
:1002E000EF93FF93E4ECF0E00E94CA01FF91EF91DD
:1002F000929859D0929AEF93FF93E4ECF0E00E9429
:10030000CA01FF91EF9192984ED0929AEF93FF938A
:10031000E4ECF0E00E94CA01FF91EF91929843D083
:10032000A998929AEF93FF93E4ECF0E00E94CA013F
:10033000FF91EF91929837D088E20BD08EE009D0F0
:1003400086E007D00895939A829505D004D02BD0EB
:1003500008959398F9CF859510F4A99A01C0A998AA
:10036000859510F4AA9A01C0AA98859510F4AB9AC5
:1003700001C0AB98859510F4AC9A01C0AC98929AE4
:10038000EF93FF93E4ECF0E00E94CA01FF91EF913C
:10039000929808953197F1F70895689462F8089556
:1003A000E89462F8089581E090E000C0EF93FF9335
:1003B000EE27E82BE92B31F0E0EDF7E03197F1F78C
:1003C0000197D1F7FF91EF9108950191119121913A
:1003D00030810895C895319600200895000F111FAF
:1003E000221F331F089500951095209530950F5FBB
:1003F0001F4F2F4F3F4F0895019110810FC00E9452
:10040000E5010EC00E94E50110C00191108117FFA7
:1004100005C03FEF2FEF04C00081112722273327AB
:1004200037FF03C0E0DF8DE28D93CF92DF92EF9232
:10043000AA24BB24CC24DD24EE2440E2EAE0FF27FA
:1004400055E093E38081890F87FD9F7083FD907F46
:10045000891B81935A95A9F7C1DFAA1CBB1CCC1C30
:10046000DD1CEE1C4A9551F7E894EFE0FF278291DE
:100470000BD0EB30E0F71EF068948A2D09D04D9335
:10048000EF90DF90CF900895982F829501D0892F1B
:100490008F70805D26F0803309F4089568948D9301
:0604A000089500003A007F
:00000001FF
