:100000000C942A001895000018950000189500001F
:10001000189500001895000018950000189500002C
:10002000189500001895000018950000189500001C
:10003000189500001895000018950000189500000C
:1000400018950000189500001895000018950000FC
:10005000189500008FE58DBFC8E3E0E24E2E88E0E2
:100060008EBFD8E0F8E05F2EA89584B7082E877F72
:1000700084BF88E1992781BD91BDEEEFF7E0A0E64E
:10008000B0E088278D933197E9F70E94A500662498
:1000900086E886B980E087B9379A0E949A008CE09A
:1000A0000E94F30007B1007E026007B90E941202AD
:1000B000A0E6B0E08C93E0EFF5E00E94EB02E0E612
:1000C000F0E0D080EE24FF2400270E945D020E9411
:1000D0009502EDE0F0E0A1E6B0E00E941F020E9470
:1000E0009600E4EFF5E00E948F00E1E6F0E0A8E082
:1000F000B8E00E9433020E942F010E948700EEEFB9
:10010000F5E00E948F000C945200F894FFCFA8E015
:10011000B8E08D91882311F060D0FBCF08950E9444
:100120001B02802D11F059D0FACF089582E05BD0E8
:1001300009D005C081E057D005D080E854C080E8E0
:1001400052D0089583E099277BC08AEF90E00E9407
:1001500020018F9A8E9A8D9A8C9A899A889A909873
:1001600085E090E00E942001919897989698959A42
:10017000949A919AEF93FF93E4ECF0E00E941401BB
:10018000FF91EF91919859D0919AEF93FF93E4ECFE
:10019000F0E00E941401FF91EF9191984ED0919A56
:1001A000EF93FF93E4ECF0E00E941401FF91EF91D4
:1001B000919843D09498919AEF93FF93E4ECF0E0F8
:1001C0000E941401FF91EF91919837D088E20BD0F3
:1001D0008EE009D086E007D00895909A829505D0E8
:1001E00004D02BD008959098F9CF859510F4949A67
:1001F00001C09498859510F4959A01C095988595BD
:1002000010F4969A01C09698859510F4979A01C0BB
:100210009798919AEF93FF93E4ECF0E00E94140119
:10022000FF91EF91919808953197F1F708956894AF
:1002300062F80895E89462F8089581E090E000C0C3
:10024000EF93FF93EE27E82BE92B31F0E0EDF7E099
:100250003197F1F70197D1F7FF91EF9108958DE272
:1002600007FD8D938F2D881F802F881F8F57082F94
:100270006894F7F8802F87FF15C080958395082F25
:1002800080E38D938EE28D93802F815228F080E35E
:100290008D9399279C93089544270A95802F09F1FF
:1002A00096D01FC0805230F09EE49D9381E48D93E0
:1002B0009D93EFCF4427DF92EF92FF920F938FE150
:1002C000801B11F0082F83D089D09EE29D930F915F
:1002D000FF90EF90DF9044270395003209F4D7CFC9
:1002E0002BD03F93EEE6F3E038E12F2D1E2D0D2DA0
:1002F000FF24EE24DD244427000F111F221FA8F441
:100300002F923F920E941B02102C0E941B02202C55
:100310000E941B02302C0E941B023197410DD21CFF
:10032000E31CF01C3F902F9001C0339631963A9514
:1003300019F73F9107D0AFCFDD0CEE1CFF1C0A95DB
:10034000D9F70895002719E058D08F93802B11F02A
:10035000039501C08F911A95B9F7802F882309F46E
:1003600096CF8F91805D8D930A95D9F792CF0065D6
:10037000CD1D80B2E60E40597307A0ACB90350D62C
:10038000DC01286BEE0094357700CA9A3B0065CDFE
:100390001D00B2E60E0059730700ACB90300D6DCAD
:1003A00001006BEE0000357700009A3B0000CD1D88
:1003B0000000E60E000073070000B9030000DC0136
:1003C0000000EE000000770000003B000000F69403
:1003D000E794D79447950A95D1F7089500270DD053
:1003E0008F9303958F2D8E298D29842BC1F78F91A3
:1003F000805D8D930A95D9F74CCF1F930F930027FB
:1004000010E2440FDD1CEE1CFF1C001F802F9AE041
:10041000890B10F0082F43951A9599F7802F0F91AB
:100420001F910895369A3699FECF369A3699FECFA7
:1004300084B195B10895C89531960020089594E04F
:1004400081918D939A95E1F70895B7FE089590E80C
:10045000B91611F4D0FE08959FEFD91AE90AF90AE6
:1004600009F403950895D190E190F19001910895D8
:1004700021913191419151910895502F2D2D3E2D73
:100480004F2D612F0895652F90E8440F551F592770
:10049000990F47956078102F90E8FF0C001F0927EF
:1004A000990FF794107800380895FF0C90E8902782
:1004B000110F9795F794092F0895102FBD2CDE2C5E
:1004C000EF2CF02E11234AF4B094D094E094F094E1
:1004D0009FEFB91AD90AE90AF90A0EE1FF2039F4A7
:1004E000FE2CED2CDB2CBB240850C2F752C032F09E
:1004F0000A95BB0CDD1CEE1CFF1CF9CFA6DFD5CF87
:100500002DEC3CEC4CEC5DE366270FC0ACDFB5DFB7
:10051000DD24EE2490E8F92E0FE307C0A9DF05C023
:100520002227332740E251E46627552351F1002367
:1005300081F1A9DF71F11627005850580894050B76
:1005400018F407FD03C025C007FD23C04695379565
:100550002795F694E794D79422D0FF202AF0DD0C5B
:10056000EE1CFF1C015073F09D2D969548F0DD2088
:100570003AF4EE202AF491E0D90E9927E91EF91EEB
:1005800094CF07C09FE7092FF92A9FEFD92EE92EB4
:100590000895DD24EE24FF240027112708959F925B
:1005A0009924AA24BB2488E1D216E306F40628F095
:1005B000D21AE30AF40A089401C08894991CAA1C70
:1005C000BB1CDD0CEE1CFF1C8A9571F7D92CEA2CA4
:1005D000FB2C9F9008950E941B02202D0E941B025D
:1005E000302D0E941B02402D0E941B02502D0895A9
:1005F00066668842566F6C742069733A0000560034
:00000001FF
